:1000000000800010FD000000493A00004D3A000059
:1000100000000000000000000000000000000000E0
:100020000000000000000000000000004F3A000047
:100030000000000000000000513A0000312D0000D7
:100040004B3A00004B3A00004B3A00004B3A00009C
:100050004B3A00004B3A00004B3A00004B3A00008C
:100060004B3A00004B3A00004B3A00004B3A00007C
:100070004B3A00004B3A00004B3A00004B3A00006C
:100080004B3A00004B3A00004B3A00004B3A00005C
:100090004B3A00004B3A00004B3A00004B3A00004C
:1000A0004B3A00004B3A00004B3A00004B3A00003C
:1000B0004B3A00004B3A00004B3A000000000000B1
:1000C000D4CF000000010010A0000000D4CF000039
:1000D0000000002000000000D4CF000000400020FD
:1000E00000000000A0010010C85200000000002025
:1000F00000000000004000200000000010B5104C7F
:10010000104B9C4206D2A2686168206803F0A1FCF3
:100110000C34F5E70C4B9C4205D26168206803F073
:10012000A4FC0834F6E703F0CBFC084B002B02D00C
:1001300000E000BFFEE704F029FB03F0F5FBF9E760
:10014000C0000000E4000000FC000000000000000F
:1001500010B5064C2378002B07D1054B002B02D09D
:10016000044800E000BF0123237010BDA00100106F
:1001700000000000D4CF0000044B10B5002B03D0CA
:100180000349044800E000BF10BDC0460000000065
:10019000A4010010D4CF0000704770477047FFFFE4
:1001A00010B5054803F0B4FD044905F0A3F904F0C7
:1001B00017FE034B187010BDBC01001000007F43F8
:1001C000BD01001010B5FFF7EBFF10BD10B50249DF
:1001D000024803F045FD10BD5C2E0000BC0100107C
:1001E00010B502F06DF910BD70B50023FF25022691
:1001F0000C490D4CE05C5A5C00280AD00132D2B2A6
:10020000FF2A04D05A540133072BF3D170BD5E543A
:10021000F9E7002AF7D0FF2A01D15854F3E75D54DB
:10022000F1E7C046C1010010CC520010034B185C2E
:10023000013843425841C0B27047C046C101001066
:10024000002210B51D4B19781A701D4A50780028ED
:1002500001D001201870D078002803D002201C782B
:10026000204318701078002803D004201C78204305
:1002700018709078002803D008201C78204318704C
:100280001079002803D010201C7820431870507972
:10029000002803D020201C78204318709279002A6F
:1002A00003D04022187802431A7008001B78054AD0
:1002B00018409943044B1070197010BDBF01001015
:1002C000CC520010BE010010C0010010014B187983
:1002D0007047C046CC5200100023094A1380094AD7
:1002E0001370094A1370094A13700122084B5242D5
:1002F0001A80084B084A1A600922084B1A70704786
:10030000C8010010CA010010D5010010D40100106E
:10031000D2010010CC010010946F0000D001001039
:1003200010B50248FFF7D8FF10BDC046D601001037
:100330007047FFFFF0B51D00974B8BB01B88040082
:10034000049109935711002D06D00020322300900C
:100350001A00010000F074FC6A461021525E8E4BB8
:10036000029226B2032F05DCFC22D2001A80002D57
:1003700021D009E0042F00D001E12023864A5B420E
:100380001380002D00D1FFE001F0CAFD050001201F
:1003900001F0CEFD01F07EFF049902001439601EC9
:1003A000C9B2C0B20A2301F0C5FE7C4801F06CFE60
:1003B000280001F0BDFD002F02DC774B784A1A803F
:1003C0000123784A00930299300000F04FFC012F7E
:1003D00002DC714B724A1A80A3B21D000126714CD7
:1003E00008352DB2039322003300029928000096AD
:1003F00000F03CFC6B461B8A22000493043B1BB2BA
:100400000593009633000599280000F02FFC022F79
:1004100002DC614B624A1A800125039E2B001036D4
:1004200036B2220002993000009500F01FFC2B002C
:10043000220005993000009500F018FC049B0095FF
:10044000083B1BB2069322002B000699300000F0F7
:100450000DFC032F02DC504B514A1A800124039DEE
:10046000504E18352DB22300320002992800009416
:1004700000F0FCFB2300320005992800009400F0F6
:10048000F5FB2300320006992800009400F0EEFBF3
:10049000049B00940C3B1BB2079332002300079986
:1004A000280000F0E3FB042F02DC3B4B3C4A1A809F
:1004B0000124039D3B4E20352DB2230032000299CA
:1004C0002800009400F0D2FB230032000599280098
:1004D000009400F0CBFB2300320006992800009422
:1004E00000F0C4FB2300320007992800009400F0BC
:1004F000BDFB049B0094103B1BB208933200230009
:100500000899280000F0B2FB052F02DC244B224A98
:1005100013800125039C234E283424B22B00320083
:1005200002992000009500F0A1FB2B0032000599F4
:100530002000009500F09AFB2B0032000699200065
:10054000009500F093FB2B003200079920000095E6
:1005500000F08CFB2B00320008992000009500F081
:1005600085FB04992B001439320009B20095200054
:1005700000F07CFB084B099A1A800BB0F0BD042FE9
:1005800000DCF4E6084AF1E60123064A00930299EA
:10059000300000F06BFB1FE7060100109A710000AD
:1005A0008A520000AD77000000F8FFFFF0B501208F
:1005B00087B001F0BDFC00228A4B1A7001F06AFE80
:1005C000FA20000102F066FC874B0400188005F059
:1005D000F1FA864904F0F0FB00283FD0FF2001F03B
:1005E00045FE834D631120B22B7001F005FE002201
:1005F000804BFC271A7002F0B3FB83B204930123F3
:100600001C000393FF007C4B1B78002B2AD0002C8E
:1006100028D002F0A5FBFA22049B92009B18984276
:1006200003D902F09DFB83B20493012C3BD0022C32
:10063000E9D1FFF705FEFFF7D7FD01F0D7FF0590E1
:1006400000280DD10220FFF7F1FD061E00D1C0E009
:1006500001F0DCFD059B03930124D4E77F20BEE776
:100660000024D0E701F016FE0400FA20000102F099
:1006700011FC05F055FA051C200005F09BFA011C41
:10068000281C04F07FFB002804D1FA20E1B200010D
:1006900002F009FC20B201F0AFFD0021080000F0DB
:1006A000DBFA07B0F0BD039B544C002B32D001267F
:1006B00000F0A2FA764210212020268000F0CCFA29
:1006C0004F4801F0E1FC9921282000F0C5FA4D487F
:1006D00001F0DAFC4C48278001F0D6FC4B4826801C
:1006E00001F0D2FC58210020278000F0B5FA4848DC
:1006F00001F0D6FC474E300001F0D2FC300001F092
:10070000CFFC300001F0CCFC300001F0C9FC4248C5
:1007100001F0C6FC9921302000F09EFA2B78032BC3
:100720004ED801235B42238002233C4A00933021B0
:10073000013BA42000F09AFA3621182000F08CFA30
:10074000374801F0A1FC1820422100F085FA2B78EF
:100750003448032B00D8344801F096FC0223334A76
:10076000278060210093A420013B00F07FFA6621DE
:10077000182000F071FA2E4801F086FC7221182032
:1007800000F06AFA01F086FD7F281BDD294B2380EB
:100790002B781A4C042B17D1243B23800A2128786C
:1007A00001F0C3FC244801F06FFC278001F072FDCA
:1007B0000023020077217020FFF7BCFD022422E70E
:1007C0001C4BB0E72780E3E7072BE7D1013B2B70F9
:1007D000E4E7FFF72BFD002800D114E701F030FD1E
:1007E000039639E708010010965000100000FE4201
:1007F00095500010E5010010F401001006010010F2
:1008000016710000557200002A7100002C71000062
:1008100037710000527100006D7100005F720000BE
:100820001072000088710000927100008B77000048
:100830009D71000000F8FFFF9A710000012210B5C1
:10084000084B00201A7001F073FB074801F00EF806
:1008500002F076FA02F09AFA01F032FE02F086FA1D
:1008600010BDC046F4010010C8650000014B1878A7
:100870007047C046F4010010F7B50024FC2625009F
:100880005827F600292D11D802F06AFA234B1A686E
:100890008242F7D21E301860012D0FD0002D06D0F5
:1008A000022D25D0FFF712FD0028EBD0F7BD1C4B21
:1008B00028001D8000F0AEF90125F3E7E2B2310017
:1008C000002001F06BFC174B174A18806E235178FB
:1008D0001078490840081C34181A791A00952B0022
:1008E000A4B200F0C3F9FE2CDCD900240225D9E71C
:1008F0000C4B0D4A1E806E23107851784008181A50
:1009000049086D3B0093791A00F0B0F93F34074B6A
:10091000A4B29C42C6D9FF25C4E7C046E0520010ED
:100920000E4E00100601001081720000FF0300004F
:1009300010B57F2001F09AFC7F22034B1A80034BF5
:1009400080321A7010BDC04696500010E4010010AD
:10095000F7B5FFF773FF21220127FF24294B1A70F7
:10096000294B1F60294B1C70FFF7E2FFFFF714FCB7
:1009700020000024FFF711FCFFF732FCFFF734FCE6
:10098000FFF70EFC00F063F9FFF776FF380001F087
:10099000CFFA1F4E348000F02FF91E4D280000F0D2
:1009A00065FF380001F0C4FAFC221B4BD2001A800C
:1009B000348000F021F9280000F058FF174E184D40
:1009C00034702F70FFF7F2FD00F002FBB02322001D
:1009D000009321002C33200000F048FB114B1879C4
:1009E000002802D0FFF700FCF8E701F0A1FA01238C
:1009F0000D4A0E4813700E4A33702B70137000F0BE
:100A000035FFF7BDDC010010E0010010E40100102B
:100A10000E4E0010306C000006010010080100109E
:100A200009010010C101001016010010CC6800007F
:100A300017010010F7B51D4D2B78002B35D0002481
:100A40000B2B02D80C34E41AE4B20127184B002017
:100A50001F7000F029FBAD220320164EA4B231789E
:100A60000090CB1C511A6118593A002000F0C1FEC9
:100A7000380000F019FBAD22032031780090CB1C28
:100A8000511A6118593A002000F04DFE04220A4B19
:100A90001A803378E41A094BAF341C80084B18686D
:100AA00001F0F2FA2B78013B2B70F7BDDD0100104D
:100AB0001601001065020010284E00102A4E00108A
:100AC000F0010010F0B587B005930CAB03910492D0
:100AD0001F78060002F044F9164B17491B780A6884
:100AE000164C121A9A4214D92268002A11D0144ABC
:100AF0001B180B601368012501331360002323606A
:100B0000FFF74CFBFFF770FBFFF75CFB280007B01B
:100B1000F0BD00252368AB42F8D1FFF78BFF059BA2
:100B20000097049A0399300000F0A0FA0123236093
:100B3000ECE7C046DC010010E8010010E001001005
:100B4000D801001010B5024800F0A2FE10BDC0464A
:100B5000EC010010704710B5040002F092FF200075
:100B600010BDFFFF70B50F4D06002B780C00102B49
:100B70000BD030002C7002F05DFC041E0DD1310052
:100B8000094803F021FF200006E008480BF0B4FFFD
:100B900003000120002BECD070BD082301202B7036
:100BA000FAE7C04604010010F501001034020010FD
:100BB00013B56B469C1D220002F06CFC208816BD0C
:100BC0000123812213B5074C5B4200935201064B6F
:100BD0000649200002F07CFD054A0649200002F08B
:100BE0004EFF13BD04020010180C00002412000078
:100BF00000010010550B000010B5002001F0C6FDEB
:100C00000023024A1380024A138010BD284E0010B0
:100C10002A4E001010B501F0B9FD10BD064B10B5FD
:100C20001B880F2B04D8054C5B001B5B934201D043
:100C300001F018FF10BDC0460A0100102C4E001034
:100C400013B504AC2488009401F03CFF13BD10B52B
:100C500001F0FCFD10BDFFFF024B1880024B198014
:100C60007047C046284E00102A4E0010F0B58FB0D5
:100C70000A9114A90978099008911178079151787F
:100C8000023206910392012B61D16B461C229B5EBE
:100C90000C93079B0733DB10079300230C9A9A42AF
:100CA00000D1E5E0DA1052B20D92072280211A40FD
:100CB00011416A4600269BB2928C02935B009BB264
:100CC0000192D21812B20492019A0B9101329B1830
:100CD0001BB20593069B9E4235DA039B0D9A9A1828
:100CE000079B7343D35C0B9A1A420ED0614B1A8850
:100CF0006B461D8D089B012B09D1019B0298AD19F4
:100D0000181829B200B2FFF789FF0136E2E7740034
:100D1000A4B267193FB239000498FFF77FFF554B23
:100D200039001A8805980135FFF778FF6519514B8E
:100D30002DB21A8829000498FFF770FF4D4B290047
:100D40001A880598DFE7029B01331BB2A6E7042B44
:100D500000D08DE06B461B8D0293029A069B944651
:100D600063449BB20A9313000493049B0A9A934230
:100D700000D17DE06B4608229B5E0593029B013308
:100D80001BB2069300230193019A079B934267DDF0
:100D9000039B394A1B7812681B115B009E5A6B46F5
:100DA0009C8C089B022B4AD1019B32005D00ADB2A6
:100DB00067193FB205993800FFF730FF631CED1843
:100DC0002DB2320005992800FFF728FF320006995E
:100DD0002800FFF723FF320038000699FFF71EFFB7
:100DE0000F22039B1B781340234A5B0012689F5A13
:100DF000089B022B2BD1019BA61C5D00ADB2AE1946
:100E0000033436B22D193A00059930002DB2FFF7A0
:100E100005FF3A0005992800FFF700FF3A00069900
:100E20002800FFF7FBFE3A0030000699FFF7F6FEB8
:100E3000039B01330393019B02331BB2A3E76B4671
:100E40001021595E019B3200E01800B2C6E76B46E4
:100E50001021595E019B0134E41820B23A00E5E705
:100E6000029B02339BB20293049B01339BB27BE74C
:100E70000FB0F0BD0601001068020010F0B58DB093
:100E80000B90F7204B4B0A911B6800255978029173
:100E900008390140481E81410298C0100918089184
:100EA00008981978414301314A4304329B185A1C6F
:100EB0001B785BB2099309996BB299426FDD089B6D
:100EC0001178022B44D0531C07938BB204936B46CA
:100ED0009B8D0393039A6B009BB2D21812B20692B9
:100EE000039A01329B181BB2059300230193029AC7
:100EF000314B01991B788A424DDD0121049A0A4247
:100F00002CD06A462D4E118D94883288022B30D118
:100F100064000C19A4B227B2390006980134FFF717
:100F20007DFE24B2328839000598FFF777FE3288BB
:100F300021000698FFF772FE210032880598FFF71E
:100F40006DFE049B5B080493019B01335BB2CDE70C
:100F5000931C079353781B020B43B7E7184E1949AC
:100F6000328809889142ECD069466846098D8488A8
:100F7000CCE71548039B00785B191BB2002806D00C
:100F8000029801380918091B08B21900D7E7091996
:100F900009B21800D3E70135ADB2079A8BE70B4BC6
:100FA000099A1B785BB29B18034A107858430DB01E
:100FB000F0BDC0461C4E00101601001006010010C6
:100FC0000E4E00100A010010144E0010080100100F
:100FD000F8B52049204E214F33880978DAB23868B5
:100FE0001F4D204C012908D1FE31002B0DD10F21BE
:100FF0000B4011011943C9B207E0022907D10131A1
:101000000A40910011430B011943174A1BE00329C1
:10101000EDD1023919400A1E01D00022FF2103F050
:10102000EDFB02233188386819400A1E01D00022E6
:10103000FF2103F0E3FB04233188386819400A1EBE
:1010400001D00022FF2103F0D9FB00232B80238055
:10105000F8BDC0460C010010264E00102C500010A8
:10106000284E00102A4E0010A04B000010B500289A
:1010700005D1064B1968064B186801F087FD054B32
:101080001B78002B01D1FFF7A3FF10BD2C500010DF
:10109000680200106C02001010B5024801F068F8F8
:1010A00010BDC046CE7000000F231840014B1880C1
:1010B0007047C04612010010114B30B51B889A4290
:1010C00018D0104B85B21C78AC4213D90E4B89B2A4
:1010D0001B788B420ED964104C430C4B40102418E3
:1010E0001868A4B2041923780F21E80703D58B43AD
:1010F0001A43227030BD0B4012011A43D2B2F8E7F6
:101100000A01001014010010150100102C500010ED
:10111000F0B58DB00A90F720454B0B911B685978BC
:10112000069108390140481E81410698C0100918EF
:10113000089108981978414301314A4304329B18B9
:101140005A1C1B785BB209936B461D8D05950A9955
:10115000059B5B1A09995BB299425CDD089B11788B
:10116000022B3ED0531C07938BB203932BB20193F7
:101170006B1C1BB20493002302932E4B02991A7826
:10118000069B8B423FDB0121039B68460B4069466F
:10119000848D0989022A2AD149006418A4B227B291
:1011A000013424B2244E002B00D1244E3278390071
:1011B0000198FFF781FF327839000498FFF77CFF30
:1011C000327821000198FFF777FF210032780498E8
:1011D000FFF772FF039B5B080393029B01335BB233
:1011E000CAE7931C079353781B020B43BDE76A467B
:1011F00009191420105E09B2002B02D00E4B1A7888
:10120000E6E70E4BFBE7059B023501339BB2ADB21F
:101210000593079A9BE70020094B1856099BC018B5
:10122000044B1B78022B00D140000DB0F0BDC0462E
:101230001C4E00101601001012010010264E001066
:101240000801001010B5104B84B21B78A34217D9C7
:101250000E4A89B212788A4212D95B104B430C4A6B
:1012600040101B18106800229BB2C018094B825610
:101270001B880F21E40704D58A431A43D2B20270B7
:1012800010BD0A401B01F8E7140100101501001001
:101290002C5000101201001070B50F4B15001B7878
:1012A0008AB20600934202D8AAB2934212D90B4BDB
:1012B0001A78B3B29A420DD9A94202DD0B00290077
:1012C0001D000C00A54205DB21B23000FFF7BAFF7C
:1012D0000134F7E770BDC04615010010140100107D
:1012E00070B50F4B16001B7882B20D00934202D8E6
:1012F0008AB2934212D90B4B1A78B3B29A420DD9E3
:10130000A84202DD030028001D000400A54205DB01
:1013100020B23100FFF796FF0134F7E770BDC046F9
:10132000140100101501001010B5002A04DA92B261
:101330005118524209B212B28A1812B2FFF7ACFF2A
:1013400010BD10B50B00002A04DA92B210185242F8
:1013500000B212B28218013A11B21A00FFF7C0FFB0
:1013600010BDF8B5060014000F00CB181DB23419DB
:101370002A0024B2FFF790FF2A0039002000FFF76F
:101380008BFF3A0030002100FFF7AAFF2A0030004F
:101390002100FFF7A5FFF8BD8218F8B512B20500CD
:1013A0000C00002801DA002A2FDB184909788D4249
:1013B00001DB914229DDE3181BB2002C01DA002B7E
:1013C00023DB134909788C4201DB99421DDD9542EC
:1013D00002DC11002A000D009C4202DC19002300EF
:1013E0000C00161C002A00DA002636B21F1C002B47
:1013F00000DA00273FB2AE4207DA3000220039009F
:101400000136FFF749FF36B2F5E7F8BD14010010C9
:1014100015010010F0B5030085B0002852D03D4AF8
:101420001478A04201DB631E1BB23B4A10780428EB
:101430002CD13A4A12785A43D10F89184910384AA8
:1014400089B215880195374D2D881580334A127859
:101450000092002B38DDD508684300252E00E31AE2
:10146000314F02900393039B9D421FDA731A0800C9
:101470009C466346461A029AC318B6B29BB296427D
:101480000FDA461C385CF854B0B2F2E7022819D1E2
:101490000325224A12785A43D11729408918891006
:1014A000CDE70135ADB201001E00DCE71F49009A0F
:1014B0000020095E002023B212B2FFF76DFF184B27
:1014C000019A1A8005B0F0BD0026009A164F5043CD
:1014D000C2100292A2B29DB20392039AAA4213D9F9
:1014E0008A1B300094466246841B8118029AA4B27B
:1014F00089B2944204DA441C385C7854A0B2F2E712
:101500000135ADB20600E8E70021009A080012B2EA
:10151000D3E7C046150100100C01001014010010A3
:1015200012010010264E00106E0200102A4E00100C
:10153000F0B589B005936B46019201229B88039018
:10154000D21A5B005B421BB20793002312B20491D4
:1015500002920693069B019A934269DA029B002B42
:101560000CDB1300013B1BB20193079B02339BB2C0
:101570001AB20792029A9B181BB20293069C029A17
:101580000134A4B223B20693630001339B180422F2
:101590001BB20293059B13420FD06B469D891E8A96
:1015A0009F882819F11909B200B23619ED19FFF711
:1015B00049FE31B228B2FFF745FE0222059B1342D5
:1015C0000FD06B469D891E8A9F882819F11B09B28E
:1015D00000B2FFF737FEED19311B09B228B2FFF751
:1015E00031FE059B1B070FD56B469D899E881F8A80
:1015F000A81B391909B200B2FFF724FEF619281BFF
:1016000031B200B2FFF71EFE059BDB07A2D56B4689
:101610009D899F881E8AE81B311B09B200B2F61B08
:101620002C1BFFF70FFE31B220B2FFF70BFE91E744
:1016300009B0F0BDF0B58DB0099312AB0292002253
:101640009B5E01220A936B461B890891D11A934035
:101650005B421BB20693002309B2079003910493E7
:101660000B92049B029A93425BDA039B002B0CDBE8
:101670001300013B1BB20293069B02339BB21AB2CA
:101680000692039A9B181BB20393049D0135ABB2DB
:1016900001936B4604229B5E039A0493019B5E00B8
:1016A000B3B2059301339B181BB203930B9A099BAA
:1016B000134218D06B461F899C8B1D8C1E8D019B7D
:1016C0007A00E018B218E91B12B209B200B2FFF7B3
:1016D0002BFE059BE419F618019B32B2E91A09B2F8
:1016E00020B2FFF721FE0222099B1342B9D06B46BC
:1016F0001F899C8B1D8C1E8D019B7A00E01AE91BB3
:10170000B21812B209B200B2FFF70EFE059BE41B3D
:10171000F618019B32B2ED1A29B220B2FFF704FE8F
:101720009FE70DB0F0BDF0B587B01F000CAB0024F3
:101730001C5F01900E00012C04DC3B00FFF711FE42
:1017400007B0F0BD6B469B88A1B202935B181BB239
:10175000009393B203934B009BB20493049A039BB0
:1017600031009D1A2DB22A000098BFB2FFF7E9FDA3
:10177000B6B27B1EF3189BB205936B462A00142168
:10178000595E0098FFF7DDFDA3B29E19049B36B2A7
:10179000FF1A3FB23A0031000198FFF7C5FD039BE5
:1017A0003A005D1E029B31005D19ADB228B2FFF711
:1017B000BBFD2200310000980123FFF7B9FEA3B260
:1017C000ED1A2DB22200310028000223FFF7B0FEEF
:1017D000059BA2B29E1A36B22200310028000423D3
:1017E000FFF7A6FE0823220031000098FFF7A0FEB5
:1017F000A6E7F0B587B00C000CA900268E5F012E7D
:1018000004DC2100FFF7C8FD07B0F0BD013B9BB22F
:1018100005936B4692B2B7B2049281B20291142240
:101820009B5EC919049A7D0009B2ADB20391521BA7
:101830002100039812B2FFF7AFFD059B3C195D1B19
:10184000049B24B2581E029B2DB21818C01B3200F4
:10185000210000B200950123FFF7ECFE0095022362
:10186000320021000398FFF7E5FECDE7054B064A5D
:1018700018600378013313704378044A01331370FE
:101880007047C0461C4E001030500010650200101A
:10189000124B134A10B504001A60FFF7FDFB01223A
:1018A000104B11481A70114BDB321A80104B2C3A36
:1018B0001A80FFF7DBFF11220E4B04211A80002350
:1018C0000D4A200013800D4A11700D4A13600D4A15
:1018D000136093611363936410BDC0462C500010D5
:1018E0006E020010244E0010C8650000184E001053
:1018F000164E00100A010010264E00106D02001056
:10190000104E001034500010F0B58FB001935B42C0
:101910000E000092994200DAD7E2BB4B1B78994245
:1019200000DDD2E25242904200DACEE2B74A1278AB
:10193000904200DDC9E2B6490978012935D8009BFB
:101940000733DB10039383B21D000293029BEA1A54
:10195000009B12B2934200DCB7E2AE4B134004D5B9
:101960000821013B49420B43013380211BB219413D
:1019700007230027D4171C40A418149BE4100491DB
:101980001C19019B9F420DDA2378049A1A4204D055
:10199000F11909B228B2FFF755FC7B1C1FB2039B5B
:1019A000E418EEE70135ADB2D0E7022900D0B6E089
:1019B000994B0021595E009B9B10039383B20293C5
:1019C0001D00002970DD954B00255D5F2C1C8542B4
:1019D00000DA041C83B2E41A914B24B200229A5E0E
:1019E000009B5219C018824200DD0200029BD21AED
:1019F00013B206938B4B00229B5EB2B200921A1C6C
:101A0000B34200DA321CB0B2121A12B20492019A36
:101A10005B18B618B34200DD3300009A9B1A1BB264
:101A20000793049A039B53430593069B9C4200DB58
:101A30004BE27D4F274004D50423013F5B421F4307
:101A40000137C0233FB27F003B415BB201930323C8
:101A5000E5171D402D19059BAD10ED18149B049E34
:101A60005D19079B9E421ADA019A2B7813400622D1
:101A7000D21B13416D4A128893420BD00F221340A0
:101A80006B4A1380009B9919029B09B2181900B286
:101A9000FFF7D8FB039B013636B2ED18E1E70134BE
:101AA00024B2C2E70135ADB2029B009AEB1A1BB219
:101AB000934200DB09E25C4F1F4004D50422013F42
:101AC0005242174301373FB27A000492C022049970
:101AD00000270A4152B205920322DC171440E41891
:101AE000149BA4101C19019B9F42DBDA059A2378F2
:101AF000049913400622521A13414C4A1288934209
:101B000008D00F22F1191340494A09B228B21380B4
:101B1000FFF798FB7B1C1FB2039BE418E3E7032944
:101B200000D087E00722009B01990733DB1009935F
:101B3000009B0D925943CB1713405B18DB101BB26F
:101B40000693019B0199DB1713405B18DB100A9386
:101B5000069B5B000B9383B21F000593059BFA1A4B
:101B6000009B12B2934200DCAFE10D99D3170B40FA
:101B70009B18DB100193019A0B9B944663440893D6
:101B8000B3B21C000793079B0A9AE31A1BB2934255
:101B900036DC099A01995343149A2500D218515CF6
:101BA0000291019952180699525C08990392149A6D
:101BB0005218D35C0493230008339BB20C93039B0D
:101BC00004215A0002231A40049B38B29B000B40A8
:101BD0001A43012302990B401A434B080293039BBB
:101BE00029B25B080393049B01355B080493FFF75C
:101BF00063FA0C9BADB2AB42E1D10134A4B2C2E7AF
:101C00000137BFB2AAE7C046150100101401001049
:101C10006D020010070000800E010010204E001021
:101C200010010010224E0010030000800A01001075
:101C300012010010042900D0DEE001997118002E75
:101C40006ADA0BB20193009B14995B107343002670
:101C5000CB1A1493002867DA022183B25C000C408F
:101C6000009940425B1840101BB2009303B29C469F
:101C7000149B03941B180020149304905210724379
:101C80004310D218924B05961B689B180122024004
:101C900008920F220292019A05995218964200DB8F
:101CA00013E18C4A1278964200DB0EE1089A002A72
:101CB00078D10400009A03991218521A0792079AD1
:101CC00094424ADA149A1178039A002A05D0149A99
:101CD0000901527812111143C9B27F4D1A782D882B
:101CE0000F11AF4209D0029F3A400F000692029AAC
:101CF00097433A00069F17433A00029F39408D42AE
:101D000002D0BA43D2B20A431A70149A0234013292
:101D10001492013324B2D2E78B429BDA01995B180B
:101D20009B1B1BB2019395E7009BC3189A420FDAE5
:101D3000012702249B1A07405B10DB191BB24100EC
:101D40009C46131A21401BB203910497009395E718
:101D5000002304939C46039390E7039A002A13D030
:101D60000121009A0A420BD0149A5B491278029C16
:101D7000098814408C4203D0197812010A431A7062
:101D8000149A013301321492149A00996244149205
:101D9000524A0136127836B2521A04995210521829
:101DA0009B1878E70100009A039C1218121B0692F8
:101DB000069A9142E8DA149A474F14783F881A78C5
:101DC0002511BD4202D0029FBA432A43424D1A70E8
:101DD0002D8801332F00029D1A782540BD4204D082
:101DE000029D24012A402243D2B21A70149A023171
:101DF0000132149209B2DBE7082966D10199711802
:101E0000002E3CDA0BB20193009B5E43149B9B1B9C
:101E10000026149300283ADA009B80B2C3181BB244
:101E20004042009303B200201499C9181491040091
:101E300072432749121809688A1801998919029171
:101E400002998E4241DA234909788E423DDA010037
:101E5000009D45190395039DA9422ADA1778149D20
:101E600001971D4F2D783F88BD4200D1019D15700F
:101E7000149D013101351495013209B2EBE78B4213
:101E8000C8DA01995B189B1B1BB20193C2E7009B48
:101E9000C3189A420ADA009D84B291B26D1A6300A7
:101EA000091B5B1909B21BB20091C0E70024230093
:101EB000BEE71499009DC9181491084901360978A4
:101EC00036B2491B09195218BAE70FB0F0BDC04627
:101ED0002C500010150100100A0100101401001010
:101EE00023B515785378023200922A00FFF70CFDD3
:101EF00023BDFFFF10B5084B00B21B6809B29B78E9
:101F0000D21A064BD2B21B78002B02D0FEF7B6FFD6
:101F100010BDFFF7FDF8FBE71C4E0010244E00102B
:101F2000024B1878431E9841C0B27047244E0010EF
:101F300009490A4A0A4B002806D001200870DC2112
:101F40001180B0221A807047087006490978118004
:101F5000054A1278F6E7C046244E0010184E0010CD
:101F6000164E00101401001015010010002010B5CD
:101F70000A490B4A0023CC5E0A4B10561B680A4ADA
:101F80005B781288C0185B00D31A9C4202DDFFF711
:101F900041FA10BD00190880FBE7C0462A4E001028
:101FA000090100101C4E0010164E001070B52B4B8E
:101FB00004001A68D378002B27D0602825D9203C4C
:101FC000E4B2274D12780023E85E264B1B889B1A4B
:101FD00098423EDB00232B80234B1B78002B26D01E
:101FE000FFF7C4FF214B287819782200FFF782FF02
:101FF000202C06D11E4B1B785BB2002B01D0401069
:1020000001302B881818288011E00E2CD9D8200018
:1020100002F0E4FC0DD7D7D7D7D7D7D70ED708D73C
:10202000D71B0D0000220E4B1A80FFF79FFF70BDDB
:102030000B4B12781888801A80B218800B4B202224
:102040001978C0B2FFF756FFF1E70022044B1A805F
:10205000EDE7064BC0B21978C7E7C0461C4E00102A
:10206000284E0010184E0010170100102A4E0010C4
:102070000801001010B504002078002803D00134B6
:10208000FFF794FFF8E710BD10B5FFF7F3FF10BDA1
:1020900010B50D20FFF78AFF0A20FFF787FF10BD5C
:1020A00010B5FFF7E7FFFFF7F3FF10BD70B5002590
:1020B00088B00E00A84204D13020FFF777FF08B0A7
:1020C00070BD310002F024FD6B466C1C5955250093
:1020D0000028F6D16B46013C1B5D18003730C0B2BA
:1020E000092B01D83033D8B2FFF760FF002CF1D1B3
:1020F000E5E710B5041E03DA2D20FFF757FF644211
:102100000A212000FFF7D2FF10BD10B5002903D12E
:10211000C0B2FFF74BFF10BD0A2902D1FFF7E9FF5C
:10212000F9E7C9B2FFF7C2FFF5E710B5FFF7EDFF1A
:1021300010BDFFFF10B5044C208004480180190039
:102140001000FFF7E2FF10BD284E00102A4E0010CD
:1021500010B50248FEF7ECF810BDC04694500010D0
:102160008910D2104901C0101143C00208437047C2
:1021700070B504000025074EA27861782078FFF73B
:10218000EFFF6B000135F0520334102DF4D1024BF8
:102190001E6070BD2C4E00106802001070B51F2329
:1021A00004001C400B401B1B1BB253431B12E418C2
:1021B0003F2346114D111E401D40C00AC912091A85
:1021C000AD1B55434A4312122D12801824B27519C3
:1021D000031C002800DA002318B2C002231C002CC4
:1021E00000DA002318432B1C002D00DA00231BB259
:1021F0005B01184380B270BD031C002800DA002385
:10220000014A13807047C0469650001010B5094A25
:1022100013780133DBB2072B09D813701378064A01
:10222000D05C064B188000B2FFF7E6FF10BD072315
:10223000F3E7C04695500010B377000096500010A9
:1022400010B5074A1378002B01D0013B13701378A7
:10225000044AD05C044B188000B2FFF7CDFF10BDDC
:1022600095500010B37700009650001010B5031C75
:10227000FF2800DDFF231A0400D50023034A138042
:10228000034B0020185EFFF7B7FF10BD18010010C8
:1022900096500010014B18887047C04696500010A9
:1022A00010B50248FEF744F810BDC0469850001023
:1022B0000122014B1A717047CC5200100022014BD1
:1022C0001A717047CC5200100122014B5A717047AD
:1022D000CC5200100022014B5A717047CC520010B2
:1022E0000122014B9A717047CC5200100022014B21
:1022F0009A717047CC5200100122014B5A707047FE
:10230000CC5200100022014B5A707047CC52001082
:102310000122014BDA707047CC5200100022014BB1
:10232000DA707047CC5200100022014B9A7070474F
:10233000CC5200100022014B1A707047CC52001092
:1023400010B5054B9A79002A02D0FFF75FFF10BD48
:1023500001229A70FBE7C046CC52001010B5054B25
:102360009A79002A02D0FFF76BFF10BD01221A7084
:10237000FBE7C046CC52001010B5044801F06AF9E2
:102380000122034B1871034B5A6210BD9C50001080
:10239000CC520010004000A010B5044801F05AF9DA
:1023A0000222034B5871034B5A6210BDEC500010CF
:1023B000CC520010004000A010B5044801F04AF9CA
:1023C0000422034B9871034B5A6210BD3C5100101C
:1023D000CC520010004000A010B5044801F03AF9BA
:1023E0000822034B5870034B5A6210BD7C520010F8
:1023F000CC520010004000A010B5044801F02AF9AA
:102400001022034BD870034B5A6210BD8C51001040
:10241000CC520010004000A070B50F4801F01AF92E
:102420000E4CA0710E4801F015F9A379C0B22070CE
:102430000C4D002B0ED000280CD02B78002B01D196
:10244000FFF7FEFE00232370013320222B70064B82
:102450005A6270BD0023F8E73C510010CC520010C6
:10246000DC510010D4520010004000A070B50F489D
:1024700001F0F0F80E4CA0710E4801F0EBF8A379D2
:10248000C0B2A0700C4D002B0ED000280CD02B78C1
:10249000002B01D1FFF7BAFE0023A37001334022C5
:1024A0002B70064B5A6270BD0023F8E73C510010B8
:1024B000CC5200102C520010D4520010004000A04A
:1024C00010B52E4C2E49200001F0D8F820002D49DF
:1024D00001F0C5F82C4C2D49200001F0CFF8200068
:1024E0002B4901F0BCF82B4C2B49200001F0C6F819
:1024F00020002A4901F0B3F8294C2A49200001F0B4
:10250000BDF82000284901F0AAF8284C28492000ED
:1025100001F0B4F82000274901F0A1F8264C274922
:10252000200001F0ABF82000254901F098F8254C77
:102530002549200001F0A2F82000244901F08FF87D
:102540002349002001F0A2FA2249012001F09EFA5D
:102550002149022001F09AFA2049032001F096FA5D
:102560001F49042001F092FA1E49052001F08EFA5D
:102570001D49062001F08AFA10BDC0469C5000108B
:10258000BD220000B1220000EC500010D522000056
:10259000C92200003C510010ED220000E1220000A1
:1025A0007C52001005230000F92200008C5100101D
:1025B0001D23000011230000DC5100103523000012
:1025C0005D2300002C52001029230000412300004D
:1025D0007923000099230000B9230000D9230000CB
:1025E000F9230000192400006D240000014B187924
:1025F0007047C046CC52001070B52648FFF748F926
:10260000254E2649300001F001F8254D254C2A00C1
:102610002100300001F033FA234E2449300000F04D
:10262000F5FF2A002100300001F029FA204E21494F
:10263000300000F0EBFF2A002100300001F01FFA0B
:102640001D4E1E49300000F0E1FF2A00210030003D
:1026500001F015FA1A4E1B49300000F0D7FF2A008E
:102660002100300001F00BFA174E1849300000F03D
:10267000CDFF2A002100300001F001FA144E154967
:10268000300000F0C3FF2A003000210001F0F7F90C
:1026900070BDC046D35200109C500010841201003F
:1026A00000010010B5350000EC500010700801006A
:1026B0003C510010881401007C520010941A010053
:1026C0008C5100106C060100DC510010C432010076
:1026D0002C5200107C0E0100A023054A05491B0660
:1026E00099500549C0005850002199507047C04684
:1026F000882000000700F8FF8821000070B58A23B9
:10270000A024042224069B01E2508023064D5B0492
:102710006351FFF7E1FF8023044A5B01A350C046E9
:10272000C046635170BDC0460422000084220000F0
:1027300070B58823A024042224069B01E250802344
:10274000054D5B046351FFF7C7FF8023034A5B011C
:10275000A350C046635170BD0422000084220000D3
:1027600010B5074C0749200001F0E8FC20000521C6
:1027700001F0C3FC0449200001F09CFC10BDC046E0
:10278000D8520010FC0402009A99993E10B504003A
:102790002020FFF7B3FF0020FFF7CAFF2120FFF73B
:1027A000ADFF0020FFF7C4FF2220FFF7A7FF2000A6
:1027B000FFF792FFA023882204211B069201995063
:1027C00080218020064A4904995040010549064C61
:1027D00098501851C046013998500029F9D110BDC0
:1027E00004220000409700008422000010B5202041
:1027F000FFF784FF0020FFF79BFF2120FFF77EFFFC
:102800000020FFF795FF2220FFF778FF0020FFF759
:1028100063FFA023882204211B0692019950802186
:102820008020074A4904995040010649064C9850B7
:102830001851C046013998500029F9D110BDC04641
:1028400004220000409700008422000070B5A025FB
:102850000124784E2D06FFF783FFAC510A2001F0CA
:10286000ECF8754B0A20EC5001F0E7F8AC510A2067
:1028700001F0E3F82000FFF741FF8E20A040FFF7B2
:1028800057FF0220FFF73AFF8020A040FFF750FFDC
:102890000320FFF733FF6948FFF74AFF0820FFF7DF
:1028A0002DFF6748FFF744FF0C20FFF727FF0020AC
:1028B000FFF73EFF0F20FFF721FF2000FFF738FF53
:1028C0002020FFF71BFF0020FFF732FF2120FFF73A
:1028D00015FF0020FFF72CFF1020FFF70FFF00204F
:1028E000FFF726FF1120FFF709FF80204001FFF7C7
:1028F0001FFF0A2001F0A1F83020FFF7FFFE0020A3
:10290000FFF716FF3120FFF7F9FEDB20FFF710FF7E
:102910003220FFF7F3FE0020FFF70AFF3320FFF716
:10292000EDFE0020FFF704FF3420FFF7E7FEDB2079
:10293000FFF7FEFE3520FFF7E1FE0020FFF7F8FE6F
:102940003620FFF7DBFEAF20FFF7F2FE3720FFF760
:10295000D5FE0020FFF7ECFE3820FFF7CFFEDB208E
:10296000FFF7E6FE3920FFF7C9FE0020FFF7E0FE83
:102970000A2001F062F8FF20FFF7C0FE0320FFF7F6
:10298000D7FE5020FFF7BAFE2E48FFF7D1FE5120A8
:10299000FFF7B4FE2C48FFF7CBFE5220FFF7AEFE48
:1029A0002A4D0520FFF7C4FE5320FFF7A7FE28009D
:1029B000FFF7BEFE5420FFF7A1FE2548FFF7B8FE43
:1029C0005520FFF79BFE234C0320FFF7B1FE562056
:1029D000FFF794FE2000FFF7ABFE5720FFF78EFEB7
:1029E0001D48FFF7A5FE5820FFF788FE2800FFF7D7
:1029F0009FFE5920FFF782FE2000FFF799FEB020CE
:102A0000FFF77CFE1548FFF793FEFF20FFF776FEE9
:102A10000020FFF78DFE0720FFF770FE1048FFF73C
:102A200087FEC82001F009F82220FFF767FEFFF7B4
:102A3000DDFE70BD04220000842200003010000082
:102A40000808000003020000090A0000211000002D
:102A50000206000003070000070500000125000032
:102A600017100000F8B584B21500DB2C25D88EB203
:102A7000AF2E22D82020FFF741FE3000FFF758FE8E
:102A80002120FFF73BFE2000FFF752FE2220FFF738
:102A900035FEA0248823042224069B01E2508027CF
:102AA0008023064E5B047F01A3512800A751FFF746
:102AB00013FE034BE750C046A751F8BD04220000A7
:102AC00084220000F0B587B00CAC248804949042B6
:102AD00002DD040010002200994202DD0C00190002
:102AE0002300DC284CDCB0294ADC141CDC2A00DD85
:102AF000DC2422B203921A1CB02B00DDB02213B2E8
:102B00000293061C002800DA002636B20C1C0029AD
:102B100000DA0024A02524B22D06039B9E422FDC60
:102B20002020FFF7EBFDA0B2FFF702FE2120FFF708
:102B3000E5FDB3B218000193FFF7FAFD2220FFF77D
:102B4000DDFD882204239201AB50802780222600DD
:102B50000C4B52047F01EA50EF500593029B9E42BA
:102B60000ADA0498FFF7B8FD074BEF50C046059B03
:102B70000136EF5036B2F1E7019E013636B2CCE7AE
:102B800007B0F0BD0422000084220000F0B5654CBF
:102B90008025A544039020200591FFF7AFFD00207C
:102BA000FFF7C6FD2120FFF7A9FD0020FFF7C0FDBC
:102BB0002220FFF7A3FDA0248823042224069B01E2
:102BC000E2508022584B5204E25000226D01E55041
:102BD000029201930F22029B37275910059B9446BE
:102BE000591800233A005A438A5C0398161176005C
:102BF000365A06A81E5260461E0002400398520034
:102C0000125A6136FF3606A88253B02202335200B0
:102C10009342E7D10700454E3888FFF75DFDA55187
:102C2000C046019BE5507888FFF756FDA551C04688
:102C3000019BE550B888FFF74FFDA551C046019BA9
:102C4000E550F888FFF748FDA551C046019BE550C7
:102C50003889FFF741FDA551C046019BE5507889B1
:102C6000FFF73AFDA551C046019BE550B889FFF733
:102C700033FDA551C046019BE550F889FFF72CFDB7
:102C8000A551C046019B1037E5505EABBB42C2D197
:102C90001F00B6AB04933888FFF71EFDA551C04650
:102CA000019BE5507888FFF717FDA551C046019BB1
:102CB000E550B888FFF710FDA551C046019BE550CF
:102CC000F888FFF709FDA551C046019BE5503889FA
:102CD000FFF702FDA551C046019BE5507889FFF73B
:102CE000FBFCA551C046019BE550B889FFF7F4FCF9
:102CF000A551C046019BE550F889FFF7EDFCA551B1
:102D0000C046019B1037E550049BBB42C3D1029BD8
:102D100002330293DC2B00D05CE7B7239B009D4479
:102D2000F0BDC04624FDFFFF042200008422000005
:102D3000024A13680A3313607047C046E452001019
:102D4000044B054A07215A6000229A601960034B20
:102D50001A60704710E000E0FF520700E4520010D4
:102D6000014B18687047C046E452001010B50020AF
:102D700000F010FE0400FDF725FA034B1878001947
:102D800001F0ECFD10BDC046BD010010A023802164
:102D9000042210B51B068901585802435A5080215D
:102DA000294A49019858014399508021985849046B
:102DB0000143995001219858014399502349244ACD
:102DC000585802435A502348002101F045F9002188
:102DD000214801F041F90021204801F03DF900218E
:102DE0001F4801F039F900211E4801F035F9002192
:102DF0001D4801F031F900211C4801F02DF9002196
:102E00001B4801F029F900211A4801F025F9002199
:102E1000194801F021F90021184801F01DF900219D
:102E2000174801F019F90021164801F015F90021A1
:102E3000154801F011F90021144801F00DF90021A5
:102E4000134801F009F910BD04200000082000001B
:102E5000F8FF07000007020004090200080B020047
:102E60000C0D0200100F02001411020018130200D2
:102E70001C1502002017020024190200281B020062
:102E80002C1D0200301F02003421020038230200F2
:102E90003C25020013B56B46DC1D0122210009F020
:102EA0007DFF207816BD07B56B46D9710733012227
:102EB000190009F04DFF07BD10B50348FDF738FABA
:102EC0000248FEF7E5FC10BD0C5400100D54001034
:102ED00010B5064B0648197801F01EFE054B186028
:102EE00039235843044B188010BDC0462001001000
:102EF000983A0000105400101454001010B5024805
:102F0000FDF716FA10BDC0461654001010B50100AA
:102F1000014800F02DFC10BD0402001010B5FF2187
:102F2000024800F025FCC0B210BDC04604020010EB
:102F3000F8B543B204000D00002B07DA002177201A
:102F4000FFF7F6FF012831D87F231C40A0268823F5
:102F500080279B013606F750FFF7E0FF8A239B018D
:102F6000F750FFF7DBFF2000FFF7D0FF280EFFF739
:102F7000CDFF280CC0B2FFF7C9FF280AC0B2FFF787
:102F8000C5FFE8B2FFF7C2FF9520402C03D094386C
:102F9000482C00D18630FFF7B9FF0A24FFF7BEFFA7
:102FA000030603D5013CE4B2002CF7D1F8BDFFFFC6
:102FB000F7B58823A02480223E4D9B012406E250D1
:102FC0003D49280000F0CAFB00220821280000F03B
:102FD000B9FB84239B01E3586424013CE4B2FFF76E
:102FE0009DFF002CF9D121004020FFF7A1FF050033
:102FF00001280ED00025314BA0221D70882380218E
:1030000012069B01D150FFF789FF68426841C0B2A8
:10301000FEBDD52148204900FFF78AFF01281AD1BB
:10302000FFF77CFF01AD60550134042CF8D1AB787B
:10303000012BDFD1EB78AA2BDCD18027204EFF05B6
:103040003900E920FFF774FF041E19D0013EB6B223
:10305000002EF5D1CEE72100E920FFF769FF4126D8
:10306000012801D80225E926164C00213000FFF77F
:103070005FFF002816D0013CA4B2002CF5D1B9E7BF
:1030800001007A20FFF754FF0028B3D1FFF746FF75
:1030900028550134042CF9D12B780C255B06AAD4D1
:1030A0002500A8E7802150208900FFF741FF002874
:1030B000A1D09FE704020010002D31011754001029
:1030C000E02E0000A8610000F8B51D00224B0700AB
:1030D0001B7816001B0700D449025120FFF728FF78
:1030E000002808D11D4CFFF719FFFF2805D1013C2E
:1030F000A4B2002CF7D101241CE0FE28FBD1184C0F
:10310000641BA41BA4B2002E04D0013EFFF706FFEF
:10311000B6B2F8E7002F17D0FFF700FF013DADB2C0
:1031200038700137002DF7D1013CA4B2FFF7F6FE4D
:10313000002CF9D1A0228823802112069B01D150B6
:10314000FFF7ECFE2000F8BD013DADB2FFF7E6FE53
:10315000002DF9D1E8E7C046175400103075000083
:1031600002020000064B1A68831ED1680020023953
:10317000994203D950784343906918187047C04664
:103180001854001000210F4B70B51A6883680400B2
:1031900001801800012B14D0D56801209D4210D960
:1031A0008B4206D110785369032802D0E160506940
:1031B00005E0E360002BFAD01800FFF7D3FF206191
:1031C000002070BD18540010F0B5040085B001282F
:1031D00001D8012029E02E4B1D68EB688342F8D905
:1031E0002E78022E31D0032E40D0012EF1D183B2A1
:1031F0005908C91889B24B0ACA0529690193591897
:10320000244BD20D03AF9A4211D03800FE3BFF3B56
:10321000FFF75AFF0028DCD178783B78000203439F
:103220001811E20701D41805000D05B0F0BD3300F8
:103230003800FFF749FF021ECBD12969019B0131FC
:1032400002A8C91805303300E2E72969C2B2040AAE
:1032500003AD5200611833002800FFF735FF002846
:10326000B7D16B7828781B021843DEE77F222969E3
:10327000C4090240611803AC920004232000FFF748
:1032800023FF0028A5D1637820781B02ECE7C04615
:1032900018540010FF01000070B5048805000134C7
:1032A000A4B2002C02D10323180070BD0369002BC7
:1032B000F9D0220709D101330E4A0361C0681668AC
:1032C000002805D1B388A342EDD92C800023EBE779
:1032D00073782209013B1A42F7D1FFF775FF0123EA
:1032E0009842E1D9F3688342DDD9E860FFF73AFFFD
:1032F0002861EAE718540010F7B504000D002B7898
:10330000202B01D10135FAE72F3B5A4253410027C8
:10331000ED18A7602B78202B0AD90197606802006E
:1033200003000B329A420DD0202119700133F9E7C6
:103330002000FFF727FF06003D4B1B689B681F70AE
:103340003000FEBD002108228C4657E0AD19202632
:10335000019A9E425241C2722000FFF713FF061EDF
:1033600024D1334F3B689B6800930F232288216947
:103370001A40520111330098FFF7A6FE002835D1FC
:10338000009B1B78002B13D00822009BDB7A134094
:1033900006D162680099581CC95CD35C99420ED072
:1033A0002000FFF779FF0028DFD00600032EC7D1E9
:1033B00063680326DB7A002BC2D10426C0E7030032
:1033C0000B28E7D1D37A002BBAD13B689B68DA7A15
:1033D000D206F2D5597D1A7D09020A43D97E9B7E19
:1033E000090212040B431343A36097E70126A7E7E2
:1033F000082AABD10B231100B4461A0063465E1CA9
:10340000EB5CF6B2202BA1D92F2B9FD02E2BEFD027
:103410008A429BD961277F42BC469C446746192F4C
:1034200001D8203BDBB24F1C43541300FAB2E2E751
:103430001854001030B5164B01001C6891B00620DE
:10344000002C20D00023A3706B4608ADA56003A814
:103450000493FFF751FF002815D12B78002B14D0CF
:10346000EB7ADB0611D46A7D2B7DE97E12021343D1
:10347000AA7E09021B040A43134363620F9BE061A7
:1034800023620123A37011B030BD0320FBE7C046C7
:10349000185400102F4BF7B51C68002307000D00CF
:1034A0000192138006209C4251D0A3780138DB079B
:1034B0004DD5236AE2699B1A994200D99DB20097C3
:1034C000002D45D0E669F30517D1700A617801F047
:1034D0001FFB002907D1002E32D1606A012833D9A1
:1034E0000023A062E370A06AFFF73CFE00282BD007
:1034F000E3785A1C1B18E270E362E3692E1CDA05BC
:103500008023D20D9B009B1A9BB29D4200D91E1CAA
:10351000B6B2381E00D000983300E16AFFF7D4FD40
:10352000002811D1E369AD1B9B19E361009BADB28B
:103530009B190093019B1B88F618019B1E80BFE717
:10354000A06AFFF741FEC9E700230120A370FEBD7A
:103550002800FCE71854001030B5154B04001B6818
:103560008DB00620002B0FD004AD9D6001AB6360D1
:103570002000FFF7C1FE002816D12B78002B10D0B9
:10358000EB7ADB0602D404200DB030BD6A7D2B7DC2
:103590001202E97E1343AA7E09021B040A43134365
:1035A000A3602000FFF7EEFD0328EDD1EBE7C04656
:1035B0001854001010B50400034B083303601C308E
:1035C00000F0F4FC200010BDBC77000010B5040032
:1035D000FFF7F0FF200000F054FA200010BDFFFFBD
:1035E000036810B50400013304D12C2205490648B4
:1035F00000F0C8F8636960681B681840431E984172
:1036000010BDC046CC7700001C78000070B50500E6
:1036100004000E4B0E00083308C5280018220021B4
:1036200001F0ECF8002320003100E36123626363C2
:10363000A363E364064A23001C3000F05BFC28000F
:10364000310000F008F9200070BDC046BC770000D2
:10365000B736000010B50430FFF7C2FF10BD0300FD
:103660000A0010B51C300121002A04D01A62002281
:103670005A630132110000F0ADFC10BD030010B51B
:103680000A001C30002903D000229963DA64013259
:10369000022100F09FFC10BD4369010010B50068D5
:1036A000002B03D1002800D0804710BD0028FCD09B
:1036B00004319847F9E710B5012902D0022904D056
:1036C00010BD2030FFF7E8FFFAE73830FAE7FFFFD8
:1036D00073B504000E480025083020600820E06023
:1036E0000C48261D60610698656025722561009072
:1036F000300000F013FE2B0030002269E16800F07A
:103700008BFE3000616900F0BBFE200076BDC04634
:103710003478000040420F0070B5094D04002B685A
:1037200083420BD0061D0269C1680023300000F0FF
:1037300073FE6169300000F0A3FE2C6070BDC046CE
:103740001C5400100261002210B5034BC1601A60C6
:10375000FFF7E2FF10BDC0461C540010002210B558
:10376000024B41611A60FFF7D7FF10BD1C540010D7
:1037700070B50D000400FFF7CFFF2900201D00F0F9
:10378000CAFE70BD10B513000A000100014800F028
:1037900033F810BD4878000010B588B072B61349F0
:1037A00002A800F072F89624029B0193013304D121
:1037B00024220F490F48FFF7E5FF059B039A2000DD
:1037C0001A60019200F039F9029B0193013304D190
:1037D000242207490748FFF7D5FF039A069B2000DC
:1037E0001A60019200F029F9DEE7C0463823020092
:1037F000CC7700001C7800000FB4012010B500F059
:10380000AFFFFFFF036870B504000D00013304D162
:10381000242206490648FFF7B5FF6368002D02D051
:10382000E268136070BD2269FBE7C046CC770000F8
:103830001C78000070B50D000400160000F0BCFA02
:103840006B1C07D00021200000F0DEFA31002000C0
:1038500000F0D4FA70BD10B50122FFF7EBFF10BDE8
:1038600070B50D000400160000F0A6FA6B1C0BD01A
:1038700031002000FFF7C6FF0121200000F0C4FA4C
:103880000021200000F0BAFA70BD10B50022FFF749
:10389000E7FF10BD10B50400431C0CD110BDA342BE
:1038A00008D12000896800F0BBFB0021200000F057
:1038B000D3FBF3E70C310B685A1CF0D10148FFF73A
:1038C0009BFFEBE7AA78000010B5884208D0431CA4
:1038D00006D04B1C06D00448FFF78EFF0121494259
:1038E000080010BD0100FBE7797800000B685A1C46
:1038F00001D1180002E0834201D1486870470C31C1
:10390000F4E7FFFF10B50400431C07D0FFF7EEFFFC
:103910000400431C02D10248FFF76EFF200010BDD7
:103920008A7800007047704710B5FFF7FCFFFFF77B
:10393000F9FF00F051FE10BD0300074A1068C318DC
:10394000EFF308818B4205D30C220120034B404248
:103950001A6070471360FCE72401001064540010E3
:1039600010B5002801D0FFF717FFFEE7074B70B531
:103970001B6804000D00002B00D09847044B1B6807
:10398000002B02D020002900984770BD28010010AC
:10399000340100100C4B10B51B680400002B06D03E
:1039A0009847002803D100200021FFF7DFFF074BD5
:1039B00000201B680021002B00D09847002C01D06C
:1039C0002060616010BDC0462C0100103001001065
:1039D000036870B5DB680400984763685A68236819
:1039E000002A02D19B68984770BD5B6815689847AC
:1039F00063682D1A5A68002D07DC916859601B68AE
:103A0000002BEAD050689847E7E7236810681B69E5
:103A10009847E9E710B50248FFF7DAFF10BDC04646
:103A2000BC78000070B5040000F0B0FD050000F0A7
:103A3000ADFD401BA042FAD370BDFA2310B59B0028
:103A40005843FFF7EFFF10BD70477047704770474E
:103A50007047030030B5091ACC181D1AAA4203D9C1
:103A60001D6804332560F7E730BD0300002210B560
:103A70001C1AA14202D91A600433F9E710BD0020D4
:103A8000704710B500F0B0FE10BDFFFF0B4AF0B557
:103A9000936895681C00002D0CD180241D006405DE
:103AA000C035E61A1F68F7500433AB42FAD1946070
:103AB00080246405103080000151F0BD00ED00E06D
:103AC00080223E495202C86F30B50243CA672322A2
:103AD00000208E2420253A4B3A499A60223A0A6007
:103AE0003949A4000A6018621A59384985B00A4059
:103AF0000192019AAA430192C822019D12022A430F
:103B00001A5100903248009A824251D90122002075
:103B10001A645A6458645A64586C1042FCD08E225D
:103B200080259200985808400390039828430390FA
:103B3000C820039C000204439C5023249C609C5892
:103B4000214002910299A943029102990843985099
:103B50000122D9681142FCD00321196700215A675C
:103B600059675A670122596F1142FCD08E219A671A
:103B700089005858174C204058505858164C20402F
:103B8000585000219A64DA64D964DA640122D96C4D
:103B90001142FCD023221A61223A59691142FCD009
:103BA00000210E4B196019600D4B1A6005B030BD35
:103BB000C046009A01320092A5E7C0460480044046
:103BC00000800440F0400440F4400440FF25000021
:103BD000C3090000FFFBFFFFFFFEFFFFC0800440A2
:103BE000C880044013B501210F4B9A68120B1203D1
:103BF0009A6002789C6891402143996098680B49CB
:103C0000014399601969019101990029FADA083292
:103C100092009A5801929A68520052089A6001984C
:103C20000004000D16BDC04600C00140000008841D
:103C300070B50600FFF7D6FF04003000FFF7D2FF93
:103C400005003000FFF7CEFFAC4202D923002C0064
:103C50001D00A84200D92800A04200D2200070BD5B
:103C600073B50C00204D060029002000FFF74AFE26
:103C7000C0B23070FF2804D135221C491C48FFF720
:103C800081FD20002900FFF705FE8022194BE40585
:103C9000E40DE418236818499343B9322360FF32D6
:103CA0008B581648034010200193019B83430193D6
:103CB000C82301981B0203438B508023104A9B01A9
:103CC000D16F0B43D3670F4B0F49186800F09AFE72
:103CD00080210138C0B2C9050C4B084318601A682E
:103CE0000A40FCD11A6073BDD878000074790000D6
:103CF000C57900000040044000800440FF2500001A
:103D0000048004403801001020A1070000C00140D9
:103D100010B5FFF78DFF01F04DFF024901F0EAFBFE
:103D200010BDC0460108803910B50400431C04D101
:103D30001E2216491648FFF725FD164B1A68002A61
:103D400006D101321A60144A144BD16F0B43D3676A
:103D50000121002C12D0124B9C420FD0114B9C42DF
:103D60000CD0114B9C4209D0104B9C4206D0104BFA
:103D70009C4203D00F4BE1184B425941200000F008
:103D80004FF90120A404E40EA04010BDDD7900002D
:103D900021780000285400100480044040000100F5
:103DA000281400002C16000030180000341A0000FF
:103DB000381C0000C4E1FFFF70B505000C0029604D
:103DC0004B1C11D00800FFF7AFFF2414074BA400D1
:103DD000E318EB60064B6860E3182B61054BE318B2
:103DE0006B61054BE418AC6070BDC046002200A0BA
:103DF000802200A0002100A0002000A010B50068D3
:103E000000F02AF910BDFFFF036870B504000D0033
:103E1000013304D143220A490A48FFF7B3FC002DBD
:103E200002D0012D06D070BDA268616813688B4373
:103E30001360F8E7A268616813680B43F8E7C046AF
:103E4000DD7900001C7800000121F8B50D008540E7
:103E5000114C636A1D421ED0104F8600F059002895
:103E600019D023681D4216D163681D4206D0E3694C
:103E70001D4203D00A4B1B689847E56123691D4228
:103E800008D0236A1D4205D0054B02211B68B85992
:103E9000984725626562F8BD004000A02C540010D0
:103EA0004C54001010B50020FFF7CEFF10BD10B528
:103EB0000120FFF7C9FF10BD10B50220FFF7C4FFB6
:103EC00010BD10B50320FFF7BFFF10BD10B50420D3
:103ED000FFF7BAFF10BD10B50520FFF7B5FF10BD05
:103EE00010B50620FFF7B0FF10BD10B50720FFF793
:103EF000ABFF10BDF7B505002448814242DC2448E1
:103F0000244C02600020820016590196002E36D102
:103F10001351214C2860E76F204B214E3B43E36750
:103F20001F248B0349120C401821A446040081274A
:103F30009B0F59435E346144A400A151BF00F15965
:103F40009B000C00012181402143F151644601276F
:103F5000A0218026A74009065B18B601995940B2F6
:103F6000B94399510F4B0124D158FFF78FFD1F2200
:103F70002B68019813409C400B4B1C60FEBD013028
:103F80000828C0D101204042F8E7C04613110200C2
:103F90004C5400102C540010048004408000090090
:103FA000008004402C7A000000E100E0002103685A
:103FB000064A9B0010B59950012281210068044CEB
:103FC0008240890063589343635010BD2C54001005
:103FD00000800440036801209840104B30B51C68F5
:103FE000204200D15862C4431D6825401D6001294C
:103FF00009D1002A03D05A681043586030BD5A686E
:1040000022405A60FAE7002A03D01A691043186167
:10401000F4E71A6922401A61F0E7C046004000A0A8
:1040200070B504000D00431C04D11522074908484F
:10403000FFF7A8FB0722074BE405E40DE41823680B
:10404000154093431D43256070BDC0464C7A000067
:10405000217800000040044070B504000D00431CAE
:1040600010D11D220F491048FFF78CFBE4050F4BC0
:10407000E40DE418042D0DD180232268DB001343E6
:10408000236006E081231B01984202D0084B98422E
:10409000ECD170BD18222368E90093431140194305
:1040A0002160F6E74C7A00002178000000400440CF
:1040B000140A000070B50C1C05000021201C00F043
:1040C00067FE002817D1FE21201C890500F074FE30
:1040D000002801D0FE24A40580232D689B00E85809
:1040E00001F068FD211C01F005FA00F079FE812342
:1040F0009B00E85070BD0024EEE78023F7B58127D0
:1041000004689B00E258BF00E059E15001920D00A5
:1041100001F050FD061C019801F04CFD011C301C03
:1041200001F010F8061C280001F0FAFC011C301CFC
:1041300001F0E0F900F054FEE051F7BDF7B50F00D3
:1041400004004B493800FFF7DDFB6B4601901B79FB
:10415000FF2B02D14748FFF74FFB474E0121327832
:1041600010000840031E08D00A410B000A4204D088
:104170004248FFF741FB01235B4201252A009A4098
:1041800031783F480A4332703E4A99008A5880216C
:104190006360C66F090631432260C1672800093396
:1041A00098400300384A380051680B435360304947
:1041B000FFF770FB2668354B32683549134333608F
:1041C0000C237268134373607368324A1340736040
:1041D000314B7768186800F015FCFE2301381B018D
:1041E000400118406B4607431879776007280BD8C1
:1041F00000F0FEFB042E3338042E3338A022274B68
:10420000D200B5500222F250C12380229B005201FD
:10421000F2500123C0225B4292002149B3500C327C
:10422000B150043AB35080231E499B00F150F3581B
:10423000053A9B08FF3AB350042273682000934369
:104240007360FFF75AFF00212000FFF733FFF7BD2F
:10425000A122D200B550144BD4E7A222D200B5500F
:10426000124BCFE7A322D200B550114BCAE7C0468C
:10427000987A00000C7B000050540010267B000050
:1042800004800440047B000000800440010006001C
:1042900040420F001FF0FFFF38010010040500002E
:1042A00001100000204E00000C0500001405000065
:1042B0001C05000080230A4ADB05D16F0B43012156
:1042C000D367084B1A680A431A6000229A6018687C
:1042D000803202431A601A688A431A607047C046E7
:1042E0000480044000400240024B18680006C00FE2
:1042F0007047C04600400240014B0021986870475B
:10430000004002408022044B196891431960986074
:1043100019680A431A60704700400240F0B585B042
:10432000009104003049009816001D00FFF7EAFADA
:104330002E4907003000FFF7E5FA2D4901902800CB
:10434000FFF7E0FA2B4902900A98FFF7DBFA019990
:1043500003903800FFF7B8FA039907000298FFF7B7
:10436000B3FA01003800FFF7AFFA2060431C04D114
:10437000482221492148FFF705FA2368204A934241
:1043800017D0204A934222D017490098FFF782FAAB
:1043900016493000FFF77EFA15492800FFF77AFA30
:1043A0000A9B013303D013490A98FFF773FA05B04B
:1043B000F0BD802314491B01C86F144A0343CB6727
:1043C000012313490B6051680B435360DCE78023E2
:1043D0000D49DB02C86F0D4A0343CB6701210D4B2A
:1043E000196051680423EFE7747B0000387B0000FC
:1043F000B07B0000F87B0000997C0000E57C0000A9
:104400000000044000800540048004400080044017
:10441000948004409C800440F8B50E0002211500F1
:1044200002681C00536807008B435360331F0C2B3A
:1044300006D9032D04D965220F491048FFF7A2F9C8
:10444000FF203B68013E1968090C0A04E90101409C
:104450006D01BF38314305402943114319600D21D7
:104460005A688A43611E8C41A400144302225C6096
:1044700059680A435A60F8BD997C0000347C0000FA
:10448000F7B5022405000E0002685368A343536089
:104490001A4B1B6801932100019800F0B3FA01F058
:1044A0003FFB071C300001F03BFB011C381C00F0F7
:1044B00049FEFC21890500F0ABFC02F015F800F084
:1044C000B3F801F0DBFFFF280FDC2B680C491C61FF
:1044D0001A6801380A401A601A6800021043022262
:1044E000186059680A435A60F7BD802302345B00A4
:1044F0009C42D0D10348FFF77FF9F5E7380100105F
:10450000FF0000FF727C000002220368D86810429E
:10451000FCD09960704710B50400FFF7F5FF042246
:104520002368D9681142FCD0986810BD104B70B553
:104530001A68002A1AD101251D6080230D4ADB006C
:10454000D16F0D4C0B43D3670C4B0D4918680223F8
:10455000636000F057FA0138E0600A496560132093
:10456000FFF794FA8022084B12031A6070BDC04610
:1045700054540010048004400080014038010010B1
:1045800040420F00153A000000E100E0044B10B576
:104590001B68002B01D1FFF7C9FF024B986810BDC3
:1045A00054540010008001400122034B9861596966
:1045B0000A435A617047C046008001400121024A07
:1045C00053698B4353617047008001400122014BC6
:1045D0001A6070470080014013B5FCF7B9F90C4828
:1045E000FDF7C6FDB024FCF741F900280ED00022EB
:1045F0000094DC2311001000FCF764FA0028F2D0CC
:104600000021044A0800FDF76BFCECE716BDC0462C
:10461000FE700000F97C000010B50248FBF788FE30
:1046200010BDC04658540010474AF0B54F46914659
:104630004B005B0D99444646D6464A46C0B5050038
:104640000C000E0088460700132A27DC002A4BDBEB
:104650003E4B13419A460B0052461340034318D079
:104660003B4A3C4B2800210001F0E4FA00220023E1
:1046700000F068FB002847D0002C04DA80234A466B
:104680005B03134198444646534600279E43380037
:1046900031001CBC90469946A246F0BD332A08DD85
:1046A0008023DB009945F4D102000B0001F0C2FA2F
:1046B000EFE7294A9446012263445242DA40924687
:1046C0000242E6D0224A234B2800210001F0B2FA30
:1046D0000022002300F036FB002815D0002C1EDB42
:1046E000534646469F430FE0194A1A4B28002100C3
:1046F00001F0A0FA0022002300F024FB002803D0E0
:10470000002C04DB0027002638003100C1E76400DC
:10471000640825430027002DF6D0104EF4E74B46E1
:10472000142B0BD03422D21A012393405D19BD42C1
:1047300008D201239C462F00E044D1E7133B9C465E
:10474000E044CDE72F00CBE701FCFFFFFFFF0F00A8
:104750009C7500883CE4377EEDFBFFFF0000F0BF56
:10476000084B10B50400002B02D0002100E000BF70
:10477000054B1868836A002B00D098472000FFF78C
:10478000EFF8C04600000000FCC8000070B500262D
:104790000C4D0D4C641BA410A64209D1002608F054
:1047A0000FF90A4D0A4C641BA410A64205D170BD36
:1047B000B300EB5898470136EEE7B300EB58984743
:1047C0000136F2E7CCC90000CCC90000CCC900001A
:1047D000FCC9000010B5034B0100186800F060F838
:1047E00010BDC0463C01001010B5034B0100186815
:1047F00000F00CF810BDC0463C0100100300121878
:10480000934200D1704719700133F9E770B5050084
:10481000002910D00C1F2368002B00DAE4182800B0
:1048200000F0DAF81D4A1368002B05D163601460AC
:10483000280000F0D2F870BDA34209D921686018A1
:104840008342F3D118685B6841182160EEE71300DA
:104850005A68002A01D0A242F9D919685818A04212
:104860000BD120680918581819608242E0D11068ED
:104870005268411819605A60DAE7A04202D90C2345
:104880002B60D5E721686018824203D11068526816
:104890004118216062605C60CAE7C0465C54001049
:1048A000032370B5CD1C9D43083506000C2D1ED288
:1048B0000C25A9421DD8300000F08EF8254A146856
:1048C0002100002919D1244C2368002B03D130008A
:1048D00000F068F820602900300000F063F8431C05
:1048E0002BD10C233000336000F077F803E0002D6B
:1048F000DFDA0C233360002070BD0B685B1B19D41A
:104900000B2B03D90B60CC18256003E04B688C425D
:104910000DD11360300000F060F8200007220B304A
:10492000231D9043C31AE7D05A42E250E4E7636084
:104930000C00EFE70C004968C3E70323C41C9C4349
:10494000A042E1D0211A300000F02CF8431CDBD14A
:10495000C7E7C0465C540010605400100D4B70B5A2
:104960001C680500A36B002B0FD11820FFF732FF46
:10497000094BA0630360094B01224360084B83602D
:104980000B2383810023026143610022A36B1D611D
:104990005A6170BD3C0100100E33CDAB34126DE690
:1049A000ECDE0500002370B5064C0500080023600E
:1049B000FEF7C2FF431C03D12368002B00D02B60FD
:1049C00070BDC0466454001003000A7801311A70AB
:1049D0000133002AF9D170477047704702B471461D
:1049E00049084900095649008E4402BC7047C04638
:1049F00002B4714649084900095C49008E4402BC72
:104A00007047C046002243088B4274D303098B428F
:104A10005FD3030A8B4244D3030B8B4228D3030C8E
:104A20008B420DD3FF22090212BA030C8B4202D330
:104A30001212090265D0030B8B4219D300E0090A58
:104A4000C30B8B4201D3CB03C01A5241830B8B4261
:104A500001D38B03C01A5241430B8B4201D34B034A
:104A6000C01A5241030B8B4201D30B03C01A5241AF
:104A7000C30A8B4201D3CB02C01A5241830A8B4234
:104A800001D38B02C01A5241430A8B4201D34B021D
:104A9000C01A5241030A8B4201D30B02C01A524181
:104AA000CDD2C3098B4201D3CB01C01A5241830935
:104AB0008B4201D38B01C01A524143098B4201D36F
:104AC0004B01C01A524103098B4201D30B01C01A9A
:104AD0005241C3088B4201D3CB00C01A5241830814
:104AE0008B4201D38B00C01A524143088B4201D341
:104AF0004B00C01A5241411A00D2014652411046A1
:104B00007047FFE701B5002000F0F0F802BDC04695
:104B10000029F7D076E7704703460B437FD4002285
:104B200043088B4274D303098B425FD3030A8B4241
:104B300044D3030B8B4228D3030C8B420DD3FF22AB
:104B4000090212BA030C8B4202D31212090265D079
:104B5000030B8B4219D300E0090AC30B8B4201D32C
:104B6000CB03C01A5241830B8B4201D38B03C01A73
:104B70005241430B8B4201D34B03C01A5241030BEA
:104B80008B4201D30B03C01A5241C30A8B4201D39B
:104B9000CB02C01A5241830A8B4201D38B02C01A46
:104BA0005241430A8B4201D34B02C01A5241030ABD
:104BB0008B4201D30B02C01A5241CDD2C3098B42A2
:104BC00001D3CB01C01A524183098B4201D38B011F
:104BD000C01A524143098B4201D34B01C01A5241C2
:104BE00003098B4201D30B01C01A5241C3088B4207
:104BF00001D3CB00C01A524183088B4201D38B00F2
:104C0000C01A524143088B4201D34B00C01A524193
:104C1000411A00D201465241104670475DE0CA0F6A
:104C200000D04942031000D34042534000229C462A
:104C300003098B422DD3030A8B4212D3FC22890134
:104C400012BA030A8B420CD3890192118B4208D30A
:104C5000890192118B4204D389013AD0921100E06C
:104C60008909C3098B4201D3CB01C01A5241830980
:104C70008B4201D38B01C01A524143098B4201D3AD
:104C80004B01C01A524103098B4201D30B01C01AD8
:104C90005241C3088B4201D3CB00C01A5241830852
:104CA0008B4201D38B00C01A5241D9D243088B42A8
:104CB00001D34B00C01A5241411A00D2014663464B
:104CC00052415B10104601D34042002B00D54942AF
:104CD000704763465B1000D3404201B5002000F0EE
:104CE00005F802BD0029F8D016E770477047C046A6
:104CF0008446101C62468C46191C634600E0C04680
:104D00001FB501F053FB002801D40021C8421FBD8C
:104D100010B501F0ABFA4042013010BD10B501F002
:104D200045FB002801DB002010BD012010BDC0465E
:104D300010B501F03BFB002801DD002010BD012073
:104D400010BDC04610B501F0CDFA002801DC0020EE
:104D500010BD012010BDC04610B501F0C3FA0028F7
:104D600001DA002010BD012010BDC0468446081C99
:104D70006146FFE71FB500F06DFB002801D400215C
:104D8000C8421FBD10B500F0EFFA4042013010BD1F
:104D900010B500F05FFB002801DB002010BD0120F2
:104DA00010BDC04610B500F055FB002801DD002005
:104DB00010BD012010BDC04610B500F0FDFA00285E
:104DC00001DC002010BD012010BDC04610B500F070
:104DD000F3FA002801DA002010BD012010BDC04602
:104DE0009E2110B5C905041CFFF7F0FF002803D170
:104DF000201C00F075FE10BD9E21201CC90500F08E
:104E0000ABFC00F06DFE80231B069C466044F2E77D
:104E1000F8B54746CE4643025B0A4400C20F9C46A3
:104E20004800DD004B02240E5B0A000E80B5984658
:104E300026009146C90FDB00271A8A4229D0002F8D
:104E400015DD00284AD1002B00D095E0ED08FF2C9D
:104E500000D188E06B025B0AE6B25B02F605580AF5
:104E60003043D20710430CBC90469946F8BD002F42
:104E700000D087E0601CC0B2012800DCB6E0EE1A6A
:104E8000720100D5C5E0002E3DD10022002600238E
:104E9000E3E7002F00DC96E000285DD0FF2C60D017
:104EA0008022D20413431B2F00DDECE02022D21B12
:104EB00018009340F8405A1E93410343ED186B01CC
:104EC0007BD50134FF2C00D1B7E0012207262A4010
:104ED0006B089A4D1D4015432E4029E0FF2CB5D09C
:104EE0008022D20413431B2F00DDB2E02022D21B0C
:104EF00019009340F9405A1E93410B43ED1A6B0180
:104F00005BD5AD01AE09300001F040FB05388640AD
:104F1000844265DC041B330020200134E340041B81
:104F2000A640751EAE41334307261D0000241E40D7
:104F300001224B461A40002E04D00F232B40042B95
:104F400000D004356B0100D480E70134E6B2FF2CB9
:104F50002FD1FF26002380E7002B52D1FF2C00D059
:104F600074E70A00ED08002DF3D08023DB032B4308
:104F70005B025B0AFF2670E7013F002FBED0FF2CCB
:104F8000B1D163E7002C47D0FF2869D08024E40426
:104F90007A4225431B2A00DDC5E02C002026D440A0
:104FA000B21A95406A1E954125435D1B040089464F
:104FB000A5E7AB015B0A50E7002401224B461A40EB
:104FC0006B07BAD142E7002F3BD10134E0B2012890
:104FD0004ADDFF2CBDD00726ED186D082E40A7E74F
:104FE0000723574D241A35401E40A1E7002C1BD142
:104FF000002D6ED1002B00D19AE00A001D003C006C
:1050000024E7013F002F00D158E7FF2C00D04AE7EA
:10501000A7E75E1B894676E7002D1CD10A00FF2812
:105020001FD004001D0011E7002D5DD1002B17D10A
:1050300080230022DB03FF260FE70A00FF26002360
:105040000BE7002C21D1002D66D1FF28E9D11D00EE
:1050500087E7012352E77A1CA7D0FA43FF2899D1AA
:105060000A001D00FF24F1E6002E21D1002D4FD0B3
:10507000002B4CD0ED186B019ED5314B07362E40DE
:1050800001241D4054E7012318E7FF28DFD08024C6
:10509000E4047F4225431B2F4DDC2026F61B2C0009
:1050A000B540FC406A1E95412543ED18040006E713
:1050B000002DCCD0002B00D153E780216046C903DE
:1050C000084203D04046084200D11D000121114092
:1050D00047E7002B00D1B9E6EA1A500125D507268B
:1050E0005D1B2E40894623E7FF24002B00D1ADE64F
:1050F00080226046D203104204D04046104201D1C3
:105100001D00894601224B46FF241A409EE62B00D3
:10511000DD080A0000249DE67A1CC6D0FF43FF2864
:10512000B9D11D001DE701253FE7151E00D044E75A
:105130000022002391E60125B7E7C046FFFFFF7D6F
:10514000FFFFFFFBF8B557464E464546DE46440294
:10515000E0B546008846640A360EC70F002E63D0BD
:10516000FF2E24D08023E400DB041C430023994657
:105170009B467F3E434642465D02D20F5B006D0A6E
:105180001B0E9046924665D0FF2B55D08022002101
:10519000ED00D2047F3B1543F61A43464A467B4056
:1051A0000F2A00D98DE06D48920082589746002C56
:1051B00054D108239946063BFF269B46DAE7002593
:1051C000534602291BD0032900D1BFE0012928D072
:1051D00030007F30002820DD6A0704D00F222A40EB
:1051E000042A00D004352A0103D530005C4A8030FF
:1051F0001540FE2803DCAC01640AC2B201E0FF22C4
:1052000000246402D205600ADB07104318433CBC4B
:1052100090469946A246AB46F8BD0122101A1B28BB
:105220007CDD00220024ECE7002C1DD104239946EC
:10523000033B00269B469DE7FF3E002D20D1022127
:1052400043464A467B400A430F2AD8D84548920035
:1052500082589746002D19D10121F1E70C23994678
:10526000093BFF269B4685E7200001F08FF9762653
:10527000431F9C4000237642361A99469B4679E7A5
:105280004A4603231A439146032186E7280001F08A
:105290007DF9431F36189D40763600217DE7802436
:1052A0000023E403FF22ACE700258023DB031C423C
:1052B00028D01D4226D12B435C02640A4346FF22BC
:1052C0009FE762016C01A24224D21B210025013E0E
:1052D000012710006D005200002801DB944201D824
:1052E000121B3D4301390029F3D11400621E944181
:1052F00025436DE7BA46594625005346022900D09A
:1053000061E77CE78023DB031C436402640A3B0003
:10531000FF2276E7121B1A210125D9E79E362A00C3
:10532000B5402C00C240651EAC411443620704D056
:105330000F222240042A00D00434620103D4A401C5
:10534000640A00225DE7012200245AE78024E40376
:105350002C436402640AFF2253E7C04600C90000E0
:10536000FFFFFFF740C9000070B542004E024C003D
:1053700045026D0A120EC30F760A240EC90FFF2ACA
:105380000FD0FF2C11D00120A24200D070BDB54239
:10539000FCD18B420DD0002AF8D12800451EA8412F
:1053A000F4E70120002DF1D1EBE70120002EEDD133
:1053B000E9E70020EAE7C04670B54A004E02450220
:1053C00044006D0A240EC30F760A120EC90FFF2C7B
:1053D00015D0FF2A0ED0002C15D1002A01D1002EA5
:1053E0001CD0002D14D08B4227D00220013B184046
:1053F000013870BD002EEED002204042F9E7002DAA
:10540000FAD1FF2A0ED0002A0ED1002EEDD00BE0EB
:1054100001230139994308000130EAE70020002DFB
:10542000E7D0E2E7002EE7D18B42DED1944205DDE2
:105430000221581E08400138DBE70024A24204DCA8
:10544000B542D2D80020B542D3D2581E012398438A
:105450000130CEE730B5420044024D02C30F480090
:10546000640A120E6D0A000EC90FFF2A12D0FF281F
:105470000CD0002A12D1002819D1002D17D1002CF0
:105480002BD00220013B1840013826E0002DF0D03F
:10549000022022E0002CFBD1FF281FD000281FD1C2
:1054A000002D1DD10220013B1840013815E0002CD1
:1054B0000ED08B42E5D10022904204DCAC42E0D811
:1054C0000020AC4209D2581E01239843013004E069
:1054D0000123013999430800013030BD002DD7D197
:1054E0008B42CED18242E7DD0221581E08400138AE
:1054F000F3E7C046F0B54E4657464546DE46E0B5B2
:1055000043025B0A450083B00F1C99462D0EC60F5F
:10551000002D57D0FF2D24D08020DB00C00418437D
:10552000002381469A469B467F3D7C027A00FB0F12
:10553000640A120E984623D0FF2A4BD0E300802441
:105540000020E4047F3A1C43AD186B1C47460193CE
:10555000534677403A000F2B48D87D499B00CB58E3
:105560009F46002B00D085E008339A46063B9B46B9
:105570007C027A00FB0FFF25640A120E9846DBD1ED
:10558000002C00D090E0524601231A43924601209D
:10559000DBE74C4658461700022824D0032800D1E8
:1055A000CFE00022002301284DD15802D205400A45
:1055B000FF071043384303B03CBC90469946A246CF
:1055C000AB46F0BD002B5BD104239A46033B00257C
:1055D0009B46AAE7FF35002C60D1524602231A43AE
:1055E00092460220B1E7FF220023DEE74B461B0C68
:1055F0009C464B462604360C180461463300220CA8
:105600006446000C43434E435043544380191A0CE4
:105610001218964203D9802149028C4664441B0427
:105620001B0C1004C01883015E1EB341800E18438A
:10563000130C1B199B0103431C00230179D5012383
:1056400062081C401443019A7F32002A4DDD630733
:1056500004D00F232340042B00D00434230103D5AE
:105660003C4B019A1C408032FE2ABCDCA3015B0A41
:10567000D2B29AE70C239A46093BFF259B4654E792
:10568000180000F083FF4A46431F76259A40002306
:105690006D4291462D1A9A469B4646E75246032391
:1056A0001A439246032050E7200000F06FFF431F8B
:1056B0002D1A9C40763D002047E780230027DB031E
:1056C000FF2272E7424666E74C463200584662E7E0
:1056D00080234A46DB031A4222D01C4220D12343B6
:1056E0005B025B0A4746FF225FE701239A1A1B2AE7
:1056F00021DC23000199D3409E318C401A00230005
:105700005C1EA34113435A0704D00F221A40042AF7
:1057100000D004335A0111D49B015B0A002244E7F4
:1057200080234A46DB0313435B025B0A3700FF22F8
:105730003BE7019587E70022002336E7012200239B
:1057400033E78023DB0323435B025B0AFF222CE762
:1057500080C90000FFFFFFF7F8B54746CE4644007A
:10576000C20F80B547024802400A84466646480098
:105770007F0A240EF60025009046FB00000EC90F9C
:10578000B146FF2800D185E001267140261A9142DA
:1057900057D0002E43DD002800D07FE04946002985
:1057A00000D1AAE0013E002E00D0F7E05B1A5A01BA
:1057B00000D48BE09B019C09200000F0E7FE053837
:1057C0008440854200DDD3E0451B230020200135C5
:1057D000EB40451BAC40621E944123430724002547
:1057E0001C40012241460A40002C04D00F211940E0
:1057F000042900D00433590100D480E00135ECB213
:10580000FF2D00D0A3E0FF2400235B02E405580A2B
:10581000D207204310430CBC90469946F8BD002E99
:1058200074D1601CC0B2012800DCA7E04A469C1A73
:10583000620100D5B6E0002CBED100220024002376
:10584000E3E7002E00DC85E0002846D0FF2C49D09D
:1058500080224846D2041043814601221B2E09DCD7
:1058600020204C46801B84404A462000F240441EC3
:10587000A04102439B185A0128D50135FF2D00D1C4
:10588000A8E00122072494491A405B080B40134307
:105890001C40A6E7002E00D078E775E7FF2C54D017
:1058A00080224946D2041143894601221B2E09DC7D
:1058B00020214846891B88404A460100F240481E84
:1058C00081410A439B1A5A0100D573E701224146E0
:1058D0000A40590700D089E711E04846002858D10E
:1058E000FF2C0CD1DB08002B00D18CE78020C003FB
:1058F00003435B025B0AFF2487E7FF2C25D0DB080C
:10590000FF2DF0D05B025B0AECB27EE7002C4DD09D
:10591000FF2818D08024E404724223431B2A00DDB0
:10592000C4E01C002025D440AA1A93405A1E93417B
:1059300023434A460500D31A884638E7721CF8D03C
:10594000F243FF28EAD10A004B46FF25D7E79B0127
:105950005B0A5AE7002E41D1651CE9B2012945DDF9
:10596000FF2D00D14FE707244B445B081C4038E76C
:1059700007225A4B2D1A2340144032E7002C1DD128
:10598000002B7AD14B46002B00D191E00A00002574
:10599000B5E7013E002E19D14B446CE7FF2C84D1B2
:1059A000FF25ACE74A468846D41A05E7002BC5D147
:1059B0000A00FF28C8D005004B46A0E7002B49D1BC
:1059C0004B46002B77D00A00FF2598E7FF2C00D02C
:1059D00043E787E70A00FF24002316E7002C15D1D0
:1059E000002B57D1FF28E6D14B467BE7002C20D176
:1059F000002B57D04946002953D04B445A0168D553
:105A00000724364A1C4001251340EAE6FF28EBD064
:105A10008022D204764213431B2E53DC2025AD1B7B
:105A20001A00AB40F2405C1EA34113434B440500F7
:105A300021E7002BD8D04946002900D152E7802128
:105A4000C9030F4200D14DE76046084200D049E744
:105A50004B4647E74846FF25002800D14FE7802204
:105A6000D203174204D06046104201D14B4688460B
:105A700001224146FF250A4041E7484600281FD041
:105A80001A1A500120D54A460724D31A1C408846CA
:105A90000025A6E6741CC9D0F643FF28BCD14B46AE
:105AA00020E799464B460025DB082BE7012340E71A
:105AB00000220023A9E680230022DB03FF24A4E6C2
:105AC00000251CE70123B1E7002AF1D013000025CF
:105AD000FCE60025FAE6C046FFFFFF7DFFFFFFFB67
